S01300006563686F50726F6A6563742E737265639B
S11300000C943E000C945B000C945B000C945B001D
S11300100C945B000C945B000C945B000C945B00F0
S11300200C945B000C945B000C945B000C945B00E0
S11300300C9460000C945B000C945B000C945B00CB
S11300400C945B000C945B000C9462010C945B00B8
S11300500C945B000C945B000C945B000C945B00B0
S11300600C945B000C945B000C945B000C945B00A0
S11300700C945B000C945B000C945B0011241FBE79
S1130080CFEFD0E1DEBFCDBF11E0A0E0B1E0E8E307
S1130090F9E002C005900D92A432B107D9F721E02E
S11300A0A4E2B1E001C01D92A533B207E1F70E94BA
S11300B092000C949A040C9400000E942301089569
S11300C01F920F920FB60F9211248F939F93EF9369
S11300D0FF93E1E8F0E0808180748083882361F0FD
S11300E080912D0190912E0190938700809386003A
S11300F080818F7B80830DC080912B0190912C0196
S11301009093870080938600E1E8F0E0808180642A
S11301108083FF91EF919F918F910F900FBE0F906D
S11301201F9018950E945D000E945A018091000161
S11301300E94600180E00E945E0178940F2EFEE030
S1130140DF2EF02D0F2EFAE3EF2EF12CF02D01E02F
S113015011E0C4E1D1E0D0920001809100018D3121
S113016008F057C0809100010E94600123E833E841
S113017086E1215030408040E1F700C000008091CA
S1130180240190912501880F991F90932501809354
S1130190240180912B0190912C0120912D0130910B
S11301A02E01821B930B9093290180932801809147
S11301B0280190912901B7010E94940160932601BE
S11301C0709327017F936F931F930F930E94BC0139
S11301D0809125018F93809124018F93DF93CF9396
S11301E00E94BC0110922701109226018091000107
S11301F08F5F80930001809100012DB73EB7285F87
S11302003F4F0FB6F8943EBF0FBE2DBF8D3108F49B
S1130210A9CF10922501109224019DCF239A2B98E7
S1130220249A2C980E944C010895569A5E9821981D
S113023029980E947401089550985898519A599891
S11302400E94810108958FEF8093640091B111B8E9
S113025092B182B994B114B895B185B997B117B870
S113026098B188B99AB11AB89BB18BB940E060E8EB
S113027081E690E00E94450113BE15BE0E940E0166
S11302800E9415010E941C0108952FB7F894FC01E7
S1130290608340832FBF0895E4E6F0E080818F7D82
S11302A0808383EA84BD85E085BD81E080936E0010
S11302B080E0089584B5806884BD089586BD08955E
S11302C087BD08951F920F920FB60F9211248F933A
S11302D0A89A80912A018F5F80932A018F910F90B1
S11302E00FBE0F901F901895E4E6F0E08081877FA1
S11302F0808383E48093810080E280936F0080E0B8
S11303000895E4E6F0E080818D7F80831092C5003B
S11303108FE58093C4001092C00088E18093C100EF
S11303201092C20080E0089597FB072E16F4009403
S113033007D077FD09D00E94A80107FC05D03EF440
S1130340909581959F4F0895709561957F4F08957D
S1130350AA1BBB1B51E107C0AA1FBB1FA617B707E7
S113036010F0A61BB70B881F991F5A95A9F7809503
S11303709095BC01CD010895A0E0B0E0E2ECF1E07D
S11303800C947304AE014B5F5F4FFA01619171915C
S1130390AF0180913101909132010E94D201E2E0DB
S11303A00C948F04ABE0B0E0E8EDF1E00C9463044E
S11303B06C017B018A01FC0117821682838181FF13
S11303C0CCC1CE0101963C01F6019381F70193FD66
S11303D0859193FF81917F01882309F4BAC1853205
S11303E039F493FD859193FF81917F01853229F43E
S11303F0B60190E00E94C903E7CF912C212C312C47
S1130400FFE1F315D8F08B3279F038F4803279F0CB
S11304108332A1F4232D20611DC08D3261F080331D
S113042069F4232D216016C0832D8260382EE32DBC
S1130430E4603E2E2AC0F32DF8601DC037FC2DC0A9
S113044020ED280F2A3040F08E32B9F436FC81C1F9
S1130450232D2064322E19C036FE06C08AE0989EF1
S1130460200D1124922E11C0EAE02E9E200D11249D
S1130470222EF32DF0623F2E08C08C3621F4832DFA
S11304808068382E02C0883641F4F70193FD8591C7
S113049093FF81917F018111B3CF982F9F7D955454
S11304A0933028F40C5F1F4F9FE399830DC083366C
S11304B031F0833771F0833509F059C021C0F80158
S11304C0808189830E5F1F4F88248394912C53016C
S11304D013C02801F2E04F0E511CF801A080B18036
S11304E036FE03C0692D70E002C06FEF7FEFC501D7
S11304F00E94BE034C018201F32DFF773F2E16C0EC
S1130500280122E0420E511CF801A080B18036FE81
S113051003C0692D70E002C06FEF7FEFC5010E9438
S1130520B3034C01F32DF0683F2E820133FC1BC052
S1130530822D90E088169906B0F4B60180E290E02E
S11305400E94C9032A94F4CFF50137FC859137FE44
S113055081915F01B60190E00E94C90321102A94A1
S113056021E0821A91088114910471F7E8C084365D
S113057011F0893641F5F80137FE07C060817181B9
S1130580828193810C5F1F4F08C060817181072EA7
S1130590000C880B990B0E5F1F4FF32DFF763F2E37
S11305A097FF09C090958095709561957F4F8F4F07
S11305B09F4FF0683F2E2AE030E0A3010E9405041B
S11305C0882E861845C0853731F4232D2F7EB22E10
S11305D02AE030E025C0932D997FB92E8F36C1F0E3
S11305E018F4883579F0B5C0803719F0883721F0D0
S11305F0B0C0E92FE061BE2EB4FE0DC0FB2DF46047
S1130600BF2E09C034FE0AC0292F2660B22E06C0B0
S113061028E030E005C020E130E002C020E132E013
S1130620F801B7FE07C060817181828193810C5FFC
S11306301F4F06C06081718180E090E00E5F1F4F04
S1130640A3010E940504882E8618FB2DFF773F2EF8
S113065036FE0DC0232D2E7FA22E891458F434FEAD
S11306600BC032FC09C0832D8E7EA82E05C0B82C89
S1130670A32C03C0B82C01C0B92CA4FE0FC0FE01EA
S1130680E80DF11D8081803321F49A2D997EA92EE5
S113069009C0A2FE06C0B394B39404C08A2D867820
S11306A009F0B394A3FC11C0A0FE06C0B21488F4F0
S11306B0280C922C9B180EC0B21460F4B60180E290
S11306C090E00E94C903B394F7CFB21418F42B1826
S11306D002C0982C212CA4FE10C0B60180E390E047
S11306E00E94C903A2FE17C0A1FC03C088E790E0E2
S11306F002C088E590E0B6010CC08A2D867859F0D6
S1130700A1FE02C08BE201C080E2A7FC8DE2B6012B
S113071090E00E94C903891438F4B60180E390E0A4
S11307200E94C9039A94F7CF8A94F301E80DF11D4E
S11307308081B60190E00E94C9038110F5CF222088
S113074009F442CEB60180E290E00E94C9032A94E3
S1130750F6CFF6018681978102C08FEF9FEF2B962B
S1130760E2E10C947F04FC0105906150704001109B
S1130770D8F7809590958E0F9F1F0895FC016150C6
S1130780704001900110D8F7809590958E0F9F1FAF
S113079008950F931F93CF93DF93FB01238121FDD2
S11307A003C08FEF9FEF2CC022FF16C046815781F4
S11307B0248135814217530744F4A081B1819D01FE
S11307C02F5F3F4F318320838C93268137812F5FA6
S11307D03F4F3783268314C08B01EC01FB01008457
S11307E0F185E02D0995892BE1F6D80116968D91B6
S11307F09C911797019617969C938E931697CE010A
S1130800DF91CF911F910F910895FA01AA27283003
S113081051F1203181F1E8946F936E7F6E5F7F4FC9
S11308208F4F9F4FAF4FB1E03ED0B4E03CD0670F45
S1130830781F891F9A1FA11D680F791F8A1F911D98
S1130840A11D6A0F711D811D911DA11D20D009F4E8
S113085068943F912AE0269F11243019305D31932A
S1130860DEF6CF010895462F4770405D4193B3E013
S11308700FD0C9F7F6CF462F4F70405D4A3318F0BA
S1130880495D31FD4052419302D0A9F7EACFB4E06B
S1130890A6959795879577956795BA95C9F7009723
S11308A06105710508959B01AC010A2E06945795C4
S11308B0479537952795BA95C9F7620F731F841F1B
S11308C0951FA01D08952F923F924F925F926F92B1
S11308D07F928F929F92AF92BF92CF92DF92EF92CC
S11308E0FF920F931F93CF93DF93CDB7DEB7CA1B4D
S11308F0DB0B0FB6F894DEBF0FBECDBF09942A8878
S1130900398848885F846E847D848C849B84AA841F
S1130910B984C884DF80EE80FD800C811B81AA81AC
S1130920B981CE0FD11D0FB6F894DEBF0FBECDBF77
S10B0930ED010895F894FFCFD6
S11309380E44697374616E6365203D2025642063E9
S11309486D200A00416E676C65203D202564206493
S107095865670000CB
S9030000FC
