:100000000C943E000C9453000C9453000C94530039
:100010000C9453000C9453000C9453000C94530014
:100020000C9453000C9453000C9453000C94530004
:100030000C9453000C9453000C9453000C945300F4
:100040000C9453000C9453000C9453000C945300E4
:100050000C9453000C9453000C9453000C945300D4
:100060000C9453000C9453000C9453000C945300C4
:100070000C9453000C9453000C94530011241FBE95
:10008000CFEFD0E1DEBFCDBF11E0A0E0B1E0E6EE02
:10009000F0E002C005900D92A030B107D9F70E94A0
:1000A00060000C9471000C94000084B5836084BDE2
:1000B00084B5806A84BD85B5856085BD239A089521
:1000C0000E94550088E087BD27E037E09DE221507F
:1000D00030409040E1F700C000008E5F823299F717
:0600E000F1CFF894FFCF00
:00000001FF
